:020000040000FA
:060000000A128A11DC2F38
:10000C007130831603138F00890183120313890146
:10001C0083160313880107308700133085001330D3
:10002C008316031788000A168A1166220A128A118F
:10003C000A168A115C230A128A110A168A11722274
:10004C000A128A1183120313EF01831203136F0830
:10005C00031D3128322838280A168A1154270A120F
:10006C008A112B286F03031D3C283D2843280A16B0
:10007C008A1135260A128A112B2802306F06031DAD
:10008C00482849284F280A168A1186230A128A11F1
:10009C002B2803306F06031D542855285B280A169D
:1000AC008A1157240A128A112B2805306F06031D5A
:1000BC006028612867280A128A151B210A128A11E6
:1000CC002B280A168A1198240A128A112B280A1234
:1000DC008A1100288312031346088039D000460881
:1000EC00C7004707D700C51F7C287D287E285714DA
:1000FC0057080319822883289328570A031D872839
:10010C00882890280030C6000030C5000030C4009C
:10011C000030C300C517C6019B280030C600003054
:10012C00C5000030C4000030C30042088039FF0015
:10013C007F08D0064208C7004707D800C11FA72870
:10014C00A828A928581458080319AD28AE28BE2889
:10015C00580A031DB228B328BB280030C200003057
:10016C00C1000030C0000030BF00C117C201C6285A
:10017C000030C2000030C1000030C0000030BF00B1
:10018C004208410440043F04031DCD28CE28E72833
:10019C000030C6000030C5000030C4000030C30081
:1001AC008030C5047F30C6045008FF007F08C604A9
:1001BC004608C2004508C1004408C0004308BF00FF
:1001CC003E2A5708031DEB28EC28F5280030C20006
:1001DC000030C1000030C0000030BF003E2A57087C
:1001EC00C700C8014808CA0058084702C900031CC8
:1001FC00CA0349087F3ED1004A080318013E003E5D
:10020C00D2004608CF004508CE004408CD00430874
:10021C00CC000030C6000030C5000030C4000030F7
:10022C00C3000030D6000030D5000030D4000030C0
:10023C00D300D8016B2958080319252926294629EA
:10024C000130C7000310CC0DCD0DCE0DCF0DC70B5B
:10025C0028290130C7000310C30DC40DC50DC60DF0
:10026C00C70B3129D61F3B293C293D2943140130AA
:10027C00C7000310D30DD40DD50DD60DC70B3F29D8
:10028C0042084F02031D542941084E02031D5429F4
:10029C0040084D02031D54293F084C02031C5729EA
:1002AC005829672956173F08CC024008031C400FF9
:1002BC00CD024108031C410FCE024208031C420F21
:1002CC00CF020130FF007F08D8071A305802031CF8
:1002DC007029712921294F084E044D044C0403192F
:1002EC00782979299829531498290130C7000310CB
:1002FC00C30DC40DC50DC60DC70B7D29D61F87298F
:10030C008829892943140130C7000310D30DD40D5B
:10031C00D50DD60DC70B8B29FF30D1070318D20A88
:10032C00FF30D207C51F9B299C297B29D801D61FDA
:10033C00A029A129BD29FF305305C700FF30540562
:10034C00C800FF305505C9007F305605CA004A0861
:10035C004904480447040319B429B529B829D8011C
:10036C00D80ABD29431CBB29BC29BD29B52958086D
:10037C000319C129C229F3290130C307003003181E
:10038C000130C407003003180130C50700300318D2
:10039C000130C607461CD329D429F3294308C700CA
:1003AC004408C8004508C9004608CA000130CB0003
:1003BC004A0DCA0CC90CC80CC70CCB0BDE294A0859
:1003CC00C6004908C5004808C4004708C3000130EE
:1003DC00D1070318D20A0030D2075208803AFF0026
:1003EC0080307F02031DFC29FF305102031CFF29C2
:1003FC00002A0E2AFF3083120313D1000030D200E2
:10040C000030C6000030C5000030C4000030C3000E
:10041C00831203135208803AFF0080307F02031DC1
:10042C00192A0130510203181C2A1D2A2A2A831268
:10043C000313D101D2010030C6000030C5000030DA
:10044C00C4000030C300D001831203135108D7003D
:10045C00571C312A322A342AC517382A7F30FF001C
:10046C007F08C5055708C7000310470CC600DA28DB
:10047C000800831203135C088039E9005C08E10072
:10048C006107EB00DB1F4B2A4C2A4D2A6B146B08BF
:10049C000319512A522A622A6B0A031D562A572A1B
:1004AC005F2A0030DC000030DB000030DA00003066
:1004BC00D900DB17DC016A2A0030DC000030DB00DD
:1004CC000030DA000030D90060088039EA006A0890
:1004DC0069060319722A732A742A69176008E100E5
:1004EC006107EA00DF1F7B2A7C2A7D2A6A146A08CE
:1004FC000319812A822A922A6A0A031D862A872ACC
:10050C008F2A0030E0000030DF000030DE000030C9
:10051C00DD00DF17E0019A2A0030E0000030DF0038
:10052C000030DE000030DD006B086A0203189F2AE1
:10053C00A02AC62A691FA32AA42AA82A8030FF0051
:10054C007F08E9066B08EC006A08EB006C08EA000F
:10055C005908EC005D08D9006C08DD005A08EC0065
:10056C005E08DA006C08DE005B08EC005F08DB005C
:10057C006C08DF005C08EC006008DC006C08E00034
:10058C00EC016A08E100E2016208E4006B08610218
:10059C00E300031CE4036408803AFF0080307F0210
:1005AC00031DDA2A1A306302031CDD2ADE2A152BFE
:1005BC00831203135C085B045A045904031DE72AD5
:1005CC00E92A0130EA2A0030EC000030DC0000306F
:1005DC00DB000030DA000030D9006A08EB001D2B7C
:1005EC006C1CF92AFA2A012B6C08E1000310610C2F
:1005FC000138EC00032B0310EC0C591C062B072BB9
:10060C00082BEC170130E1005C0DDC0CDB0CDA0C78
:10061C00D90CE10B0A2B0130FF007F08EB0783128A
:10062C0003136A086B02031C1C2B1D2BF62A691B77
:10063C00202B212B6A2B6B08031D252B262B2F2BF4
:10064C000030DC000030DB000030DA000030D90074
:10065C00962C5D08D9075E0803110318013E031997
:10066C00382BDA075F0803110318013E03193F2BDF
:10067C00DB07600803110318013E0319462BDC0746
:10068C005C1C492B4A2B1E2C6C1C4D2B4E2B552BBA
:10069C006C08E1000310610C0138EC00572B0310BF
:1006AC00EC0C591C5A2B5B2B5C2BEC170130E1002A
:1006BC005C0DDC0CDB0CDA0CD90CE10B5E2B013085
:1006CC00FF007F08EB071E2C5C08803AFF006008D7
:1006DC00803A7F02031D7C2B5F085B02031D7C2B81
:1006EC005E085A02031D7C2B5D08590203187F2BF0
:1006FC00802BD82BFF30E100FF30E200FF30E3000D
:10070C00FF30E4005D08E5005E08E6005F08E700E6
:10071C006008E8005908E5025A08031C5A0F972B89
:10072C00982BE6025B08031C5B0F9D2B9E2BE702AC
:10073C005C08031C5C0FA32BA42BE8026508E107E3
:10074C0066080318660FAB2BAC2BE207670803187F
:10075C00670FB12BB22BE30768080318680AE4078C
:10076C006408DC006308DB006208DA006108D90069
:10077C008030FF007F08E906EC09EC0A6C08031DC9
:10078C00C82BC92BE62B0130D907003003180130D8
:10079C00DA07003003180130DB0700300318013092
:1007AC00DC07E62B5D08D9025E08031C5E0FDA023B
:1007BC005F08031C5F0FDB026008031C600FDC0288
:1007CC005C085B045A045904031DED2BEE2B1A2C08
:1007DC006C08031DF22BF32B1A2C0030DC000030BC
:1007EC00DB000030DA000030D900962C0130E1003B
:1007FC000310D90DDA0DDB0DDC0DE10BFE2BEC1F1C
:10080C00082C092C0A2C59146C1C0D2C0E2C112C98
:10081C000314EC0D132C0310EC0D6B080319172C9F
:10082C00182C1A2C0130EB02DB1F1D2C1E2CFC2B60
:10083C00EA01EC1F222C232C312C6C087F39031974
:10084C00282C292C2C2CEA01EA0A312C591C2F2C8F
:10085C00302C312C292C6A080319352C362C6A2C97
:10086C000130D907003003180130DA0700300318C3
:10087C000130DB07003003180130DC075C1C472C0F
:10088C00482C6A2C5908E1005A08E2005B08E30086
:10089C005C08E4000130E500640DE40CE30CE20CB0
:1008AC00E10CE50B522C6408DC006308DB006208E9
:1008BC00DA006108D9006B0A0319652C662C6A2CC6
:1008CC000130FF007F08EB076B0A03196E2C6F2CAD
:1008DC00742C6B08031D732C742C822C0030DC00E0
:1008EC000030DB000030DA000030D9006B08031D4B
:1008FC00802C812C822CE9016B1C852C862C882C5D
:10090C00DB178C2C7F30FF007F08DB056B08E100C8
:10091C000310610CDC00E91F942C952C962CDC1731
:10092C0008008312031328088039B2002808AD0090
:10093C002D07B800A71FA32CA42CA52C38143808FD
:10094C000319A92CAA2CB92C380A031DAE2CAF2CD8
:10095C00B72C0030A8000030A7000030A6000030F3
:10096C00A500A717C12C0030A8000030A70000304C
:10097C00A6000030A5002C088039FF007F08B206C5
:10098C002C08AD002D07B300AB1FCD2CCE2CCF2CDB
:10099C00331433080319D32CD42CE32C330A031D42
:1009AC00D82CD92CE12C0030AC000030AB0000303E
:1009BC00AA000030A900AB17EB2C0030AC000030C3
:1009CC00AB000030AA000030A90033080319EF2C4B
:1009DC00F02CF52C3808031DF42CF52CFE2C0030D3
:1009EC00A8000030A7000030A6000030A500DB2FC7
:1009FC002508F0002B080A168A1135230A128A11D1
:100A0C00710883120313BE007008BD003D08AD00D1
:100A1C00AE01AF01B0013008B7002F08B6002E08A8
:100A2C00B5002D08B4003E08AD00AE01AF01B00119
:100A3C003008BC002F08BB002E08BA002D08B900E6
:100A4C002608F0002A080A168A1135230A128A1180
:100A5C00710883120313BE007008BD003D08AD0081
:100A6C00AE01AF01B0012D08B4072E080311031815
:100A7C00013E0319422DB5072F0803110318013E3F
:100A8C000319492DB607300803110318013E031949
:100A9C00502DB7073E08AD00AE01AF01B0012D08D7
:100AAC00B9072E0803110318013E03195E2DBA076E
:100ABC002F0803110318013E0319652DBB073008DD
:100ACC0003110318013E03196C2DBC072708F00015
:100ADC0029080A168A1135230A128A117108831201
:100AEC000313BE007008BD003D08AD00AE01AF01A0
:100AFC00B0012D08B4072E0803110318013E031989
:100B0C00882DB5072F0803110318013E03198F2DEB
:100B1C00B607300803110318013E0319962DB707C9
:100B2C003E08AD00AE01AF01B0012D08B9072E088B
:100B3C0003110318013E0319A42DBA072F08031142
:100B4C000318013E0319AB2DBB0730080311031822
:100B5C00013E0319B22DBC070830AD000310B40DD3
:100B6C00B50DB60DB70DAD0BB42D2608F000290848
:100B7C000A168A1135230A128A117108831203137B
:100B8C00BE007008BD003D08AD003E08AE00AF01D0
:100B9C00B0012D08B4072E0803110318013E0319E8
:100BAC00D82DB5072F0803110318013E0319DF2DAB
:100BBC00B607300803110318013E0319E62DB707D9
:100BCC002508F0002A080A168A1135230A128A1100
:100BDC00710883120313BE007008BD003D08AD0000
:100BEC003E08AE00AF01B0012D08B4072E0803116A
:100BFC000318013E0319032EB5072F080311031820
:100C0C00013E03190A2EB607300803110318013EE2
:100C1C000319112EB7070830AD000310B40DB50D34
:100C2C00B60DB70DAD0B132E2508F00029080A16CA
:100C3C008A1135230A128A11710883120313BE001C
:100C4C007008BD003D08AD003E08AE00AF01B0011C
:100C5C002D08B4072E0803110318013E0319372E73
:100C6C00B5072F0803110318013E03193E2EB607D2
:100C7C00300803110318013E0319452EB707260847
:100C8C00F0002B080A168A1135230A128A117108F2
:100C9C0083120313BE007008BD003D08AD003E0872
:100CAC00AE00AF01B0012D08B9072E0803110318CF
:100CBC00013E0319622EBA072F0803110318013ED7
:100CCC000319692EBB07300803110318013E0319E1
:100CDC00702EBC072708F0002A080A168A11352343
:100CEC000A128A11710883120313BE007008BD002A
:100CFC003D08AD003E08AE00AF01B0012D08B907AC
:100D0C002E0803110318013E03198D2EBA072F0864
:100D1C0003110318013E0319942EBB07300803116D
:100D2C000318013E03199B2EBC072708F0002B0863
:100D3C000A168A1135230A128A11710883120313B9
:100D4C00BE007008BD003D08AD003E08AE00AF010E
:100D5C00B00108300310AD0DAE0DAF0DB00DFF3E60
:100D6C00031DB02E2D08B9072E0803110318013EE0
:100D7C000319C12EBA072F0803110318013E0319DA
:100D8C00C82EBB07300803110318013E0319CF2EE0
:100D9C00BC073408AD003508AE003608AF00370884
:100DAC00B00018300310B00CAF0CAE0CAD0CFF3E05
:100DBC00031DD82E2D08B9072E0803110318013E68
:100DCC000319E92EBA072F0803110318013E031962
:100DDC00F02EBB07300803110318013E0319F72E40
:100DEC00BC070830AD000310B40DB50DB60DB70D32
:100DFC00AD0BF92E38083307AD00AE01AE0D2D0842
:100E0C00823EBD002E080318013EFF3EBE002B2F74
:100E1C000130AD000310B90DBA0DBB0DBC0DAD0BFF
:100E2C00102FB71F1A2F1B2F1C2F39140130AD0098
:100E3C000310B40DB50DB60DB70DAD0B1E2FFF3055
:100E4C00BD070318BE0AFF30BE07BB1F2E2F2F2F66
:100E5C000E2FB301B71F332F342F502FFF30340513
:100E6C00AD00FF303505AE00FF303605AF007F30EA
:100E7C003705B00030082F042E042D040319472F1A
:100E8C00482F4B2FB301B30A502F391C4E2F4F2F25
:100E9C00502F482F33080319542F552F862F01300C
:100EAC00B907003003180130BA07003003180130BD
:100EBC00BB07003003180130BC073C1C662F672FA2
:100ECC00862F3908AD003A08AE003B08AF003C084D
:100EDC00B0000130B100300DB00CAF0CAE0CAD0C4D
:100EEC00B10B712F3008BC002F08BB002E08BA00C4
:100EFC002D08B9000130BD070318BE0A0030BE072B
:100F0C003E08803AFF0080307F02031D8F2FFF3098
:100F1C003D02031C922F932F9E2F7F3083120313BD
:100F2C00BC008030BB000030BA000030B900CF2FBD
:100F3C00831203133E08803AFF0080307F02031DAA
:100F4C00A92F01303D020318AC2FAD2FB92F003063
:100F5C0083120313BC000030BB000030BA00003019
:100F6C00B900B201CF2F831203133D08B800FF3034
:100F7C00B905FF30BA057F30BB050030BC05381C05
:100F8C00C82FC92FCA2FBB173808AD0003102D0C62
:100F9C00BC003208FF007F08BC043C08A8003B08DA
:100FAC00A7003A08A6003908A50008008317B1303D
:100FBC00FD001230FE008E30FF00A13084000A16B6
:100FCC008A11A2220A128A1190308400A1300A12CE
:100FDC008A15C5200A128A118313D3308400E0309D
:100FEC000A128A15C5200A128A11EF0183010A120E
:100FFC008A110628FF1B0A2883137F188317000801
:10100C00840A0319FF0A080008308A000408840ABD
:10101C0082070034013400340A3400346434003460
:10102C00E8340334103427340034003400340034F2
:10103C00C434FF347F343F348034EF34FF34BE3457
:10104C009034E134A9343E34EC3482347634BE34FA
:10105C008234AD342B343E340E343C34C334BD3482
:10106C008734D13413343D3441347834D334BB34E5
:10107C003234303432343334303449345234203412
:10108C00253464342C3420344834203425346434EE
:10109C002C3420344D34543420342534643400340E
:1010AC0043346C34613476346534203449346E34D2
:1010BC0063346F3472347234653463347434613431
:1010CC0000344E344F3420344134553454344F347E
:1010DC00523449345A34413444344F342134213459
:1010EC000034543465346D34703465347234613486
:1010FC007434753472346134203441346D34623458
:10110C00003443346C3461347634653420344334E5
:10111C006F34723472346534633474346134003433
:10112C005134753465342034433461346C346F3449
:10113C00723420343A342834003442346C346F34F2
:10114C0063346B34203453347934733474346534ED
:10115C006D34003450347234653473347334203449
:10116C00613420344B346534793400345434533482
:08117C002034253464340034F2
:10118A0064008001840A0406031900340406C62890
:10119A0000307005F80000307105F90080307205E2
:1011AA00FA007F307305FB007B087A04790478041F
:1011BA00031DE028E128E9280030F3000030F2009E
:1011CA000030F1000030F00000307405F800003003
:1011DA007505F90080307605FA007F307705FB0047
:1011EA007B087A0479047804031DFC28FD28052964
:1011FA000030F7000030F6000030F5000030F4004F
:10120A0077087306031D132976087206031D13292E
:10121A0075087106031D1329740870060319162927
:10122A001729192903101A29031408000A168A1102
:10123A007E220A128A15F5016830F6008030F7001E
:10124A0000300A168A110F230A128A150030F0009C
:10125A00F1000A168A11C8220A128A150130F00012
:10126A000030F1000A168A11C8220A128A1571087A
:10127A0083160313D0007008CF005008B5004F083A
:10128A00B4000A128A1575260A128A1583160313E0
:10129A003508D2003408D1000430F0000030F100E3
:1012AA000A168A11C8220A128A15063083160313EF
:1012BA00CE001330CD00AD30CC00CC0B6229CD0B63
:1012CA006229CE0B6229AD3083120313A000831664
:1012DA000313520883120313A2008316031351083F
:1012EA0083120313A10090300A128A153D240A12B0
:1012FA008A15F5019030F6000130F70000300A1621
:10130A008A110F230A128A15153083160313CE0089
:10131A004B30CD00BD30CC00CC0B9129CD0B91299F
:10132A00CE0B91299829831603135208803AFF009D
:10133A0080307F02031DA3291F305102031CA629F6
:10134A00A729AC29053083120313EF00B029043012
:10135A0083120313EF000A168A117E220A128A15D3
:10136A001F3083160313CE007130CD001D30CC0020
:10137A00CC0BBD29CD0BBD29CE0BBD29C4298312A7
:10138A000313EF01EF0A0800F80078080319CE29C1
:10139A00CF29E329F31FD229D329E3297009FA00B7
:1013AA007109FB007209FC007309FD00FA0A0319AE
:1013BA00FB0A0319FC0A0319FD0AEB297308FD004D
:1013CA007208FC007108FB007008FA0073087204C6
:1013DA0071047004031DF229F329FC290030F3007B
:1013EA000030F2000030F1000030F000802A963020
:1013FA00F9000C2A0130FF007F08F90701300310B9
:10140A00FD0CFC0CFB0CFA0CFF3E031D042AFE30FB
:10141A007D05031D112A122AFF292E2A0130FF00F9
:10142A007F08F9070130FA07003003180130FB077B
:10143A00003003180130FC07003003180130FD07A3
:10144A0001300310FD0CFC0CFB0CFA0CFF3E031DD3
:10145A00262AFF307D05031D332A342A132A402AFF
:10146A000130F9020130F4000310FA0DFB0DFC0DF6
:10147A00FD0DF40B392AFC1B432A442A4A2A02305E
:10148A0079020318492A4A2A352A79184D2A4E2AF6
:10149A00562AFF30FA05FF30FB057F30FC05FF3086
:1014AA00FD050310F90C7908F400F501F601F701BE
:1014BA0018300310F40DF50DF60DF70DFF3E031D60
:1014CA005E2A7408FA047508FB047608FC04770897
:1014DA00FD0478080319722A732A782AF31F762AD8
:1014EA00772A782AFD177D08F3007C08F2007B082A
:1014FA00F1007A08F0000800831603132508A700F4
:10150A0001300310A70DFF3E031D862A0310270D85
:10151A00240784000A128A150A200A128A15A800CA
:10152A000A128A150A200A128A15A9000A128A15AD
:10153A000A200A128A15AA000A128A150A200A1211
:10154A008A15AB002B08AF002A08AE002908AD00A7
:10155A002808AC004C2BFF30A5070318A60AFF3059
:10156A00A6072508A70001300310A70DFF3E031D9B
:10157A00B92A0310270D240784000A128A150A20A3
:10158A000A128A15A8000A128A150A200A128A154E
:10159A00A9000A128A150A200A128A15AA000A1232
:1015AA008A150A200A128A15AB002B088312031324
:1015BA00DC00831603132A0883120313DB00831645
:1015CA000313290883120313DA0083160313280866
:1015DA0083120313D900831603132F0883120313EC
:1015EA00A800831603132E0883120313A700831679
:1015FA0003132D0883120313A600831603132C0862
:10160A0083120313A50083160313230883120313FB
:10161A00AC0083160313220883120313AB0083164C
:10162A000313210883120313AA0083160313200845
:10163A0083120313A9000A128A1197240A128A151F
:10164A00831203132808E0002708DF002608DE00BB
:10165A002508DD000A128A113F220A128A1583120E
:10166A0003135C0883160313AF00831203135B088A
:10167A0083160313AE00831203135A088316031347
:10168A00AD0083120313590883160313AC0025080F
:10169A002604031D512B522BB02A2F08A3002E0813
:1016AA00A2002D08A1002C08A00008002030840008
:1016BA00A130F0000408F1001030F2007008840034
:1016CA0083170008F300F00A710884008313730873
:1016DA008000F10AF20B632B83120313B001B101EC
:1016EA00B2018312031331083204031D7D2B7E2BB2
:1016FA00A32BFE3086004230F000F00B822B000054
:10170A00882B2008B00083120313061E8D2B8E2B04
:10171A00862B912B2108B000861E942B952B8F2B9C
:10172A00982B2208B000061F9B2B9C2B962B9F2BD5
:10173A002308B000861FA22BA32B9D2B3103320452
:10174A00031DA82BA92BCE2BFD3086004230F000BA
:10175A00F00BAD2B0000B32B2408B0008312031347
:10176A00061EB82BB92BB12BBC2B2508B000861E40
:10177A00BF2BC02BBA2BC32B2608B000061FC62BC3
:10178A00C72BC12BCA2B2708B000861FCD2BCE2B07
:10179A00C82B023031063204031DD42BD52BFA2B69
:1017AA00FB3086004230F000F00BD92B0000DF2B13
:1017BA002808B00083120313061EE42BE52BDD2B49
:1017CA00E82B2908B000861EEB2BEC2BE62BEF2B1F
:1017DA002A08B000061FF22BF32BED2BF62B2B0851
:1017EA00B000861FF92BFA2BF42B03303106320492
:1017FA00031D002C012C262CF73086004230F00005
:10180A00F00B052C00000B2C2C08B00083120313DC
:10181A00061E102C112C092C142C2D08B000861E23
:10182A00172C182C122C1B2C2E08B000061F1E2C4D
:10183A001F2C192C222C2F08B000861F252C262C91
:10184A00202C0130B1070318B20A0030B20732085F
:10185A00803AFF0080307F02031D352C04303102AC
:10186A00031C382C392C762B8312031330080800FA
:10187A0083120313B100AC01AD012130AA00162D69
:10188A002530320603194A2C4B2C5B2C3108840074
:10189A003208831780000130FF007F08B10701304A
:1018AA00AC070318AD0A0030AD07162DAB010130A5
:1018BA00A007FF30200784000A128A150A200A129C
:1018CA008A15B200A700A8012808003A03196E2C4D
:1018DA00162D2708003A0319262D643A0319792C84
:1018EA000D3A0319792C162D2A088400831300084F
:1018FA00AF00840A0008B0000230FF007F08AA0780
:10190A00B01F882C892C922C0330FF007F08AB046F
:10191A00AF09B009AF0A0319B00AB201B20A320814
:10192A00A7002707013E84000A128A150A200A1214
:10193A008A15A8000A128A150A200A128A15A9000D
:10194A0029083002031DAB2C28082F020318AE2CDD
:10195A00AF2CB02CBA2C0130FF007F08B20705303B
:10196A003206031DB92CBA2C942C2B0803390319FF
:10197A00BF2CC02CCF2C310884002D308317800057
:10198A000130FF007F08B1070130AC070318AD0A28
:10199A000030AD073208AE000D2D0A30F7000030D6
:1019AA00F8002E08A7002707013E84000A128A15AC
:1019BA000A200A128A15F0000A128A150A200A1247
:1019CA008A15F1003008F3002F08F2000A168A116E
:1019DA00D9240A128A157108FA007008F9000A1641
:1019EA008A111D240A128A157708303E83120313BE
:1019FA00B200310884003208831780000130FF00EA
:101A0A007F08B1070130AC070318AD0A0030AD07F3
:101A1A00FF30FF007F08AE072E0A031D152D162D75
:101A2A00D22C0130A007FF30200784000A128A1541
:101A3A000A200A128A15B2003208031D252D262D06
:101A4A00452C31088400831780012D08A1002C0839
:101A5A00A0000800831603133308F3003208F200CB
:101A6A003108F1003008F0000030F7000030F600CD
:101A7A000030F5000030F4000A168A11B2260A1264
:101A8A008A150318492D4A2D592D2130831603131F
:101A9A00D3000030D4000030B3000030B200003070
:101AAA00B1000030B000742E831603133308F3001C
:101ABA003208F2003108F1003008F0000030F70077
:101ACA000030F6000030F5000030F4000A128A15E2
:101ADA00CD200A128A15031C732D742D832D2230F2
:101AEA0083160313D3000030D4000030B300003053
:101AFA00B2000030B1000030B000742EBF30831243
:101B0A000313DC008030DB000030DA000030D9003B
:101B1A004030A8000030A7000030A6000030A50021
:101B2A006D30A40083160313330883120313A30032
:101B3A0083160313320883120313A20083160313B6
:101B4A00310883120313A10083160313300883128A
:101B5A000313A0000A168A1163250A128A15831232
:101B6A0003132308AC002208AB002108AA002008AE
:101B7A00A9000A128A1197240A128A1583120313DA
:101B8A002808E0002708DF002608DE002508DD0017
:101B9A000A128A113F220A128A15831203135C0859
:101BAA0083160313B300831203135B08831603130C
:101BBA00B200831203135A0883160313B100831267
:101BCA000313590883160313B000FF30831203135B
:101BDA00ED070318EE0AFF30EE07831603133308E6
:101BEA00A3003208A2003108A1003008A0000B307F
:101BFA00A4000830A5000030A6000A128A15812226
:101C0A000A128A15831603132308B3002208B200A6
:101C1A002108B1002008B000330883120313DC0046
:101C2A0083160313320883120313DB00831603138C
:101C3A00310883120313DA00831603133008831260
:101C4A000313D9003F30A8003130A7007230A60034
:101C5A001830A5006D08F0006E08F1000030F11B85
:101C6A00FF30F200F30001300A128A15C9210A1264
:101C7A008A15730883120313AC007208AB0071084B
:101C8A00AA007008A9000A128A1197240A128A1552
:101C9A00831203132808E0002708DF002608DE0065
:101CAA002508DD000A128A113F220A128A158312B8
:101CBA0003135C0883160313B300831203135B0830
:101CCA0083160313B200831203135A0883160313ED
:101CDA00B10083120313590883160313B0000800D6
:101CEA00FF3083160313B6000330B70034083602F8
:101CFA00B8003508031C350A3702B900BA01B91B06
:101D0A00BA033A08BB00C13083120313DC00203047
:101D1A00DB000030DA000030D900831603133B08D9
:101D2A00F3003A08F2003908F1003808F0000130EF
:101D3A000A128A15C9210A128A1573088312031313
:101D4A00C2007208C1007108C0007008BF004630A6
:101D5A00C6002030C5002830C4000030C3000A1273
:101D6A008A1170200A128A15831203134208E000AE
:101D7A004108DF004008DE003F08DD000A128A1130
:101D8A003F220A128A15831203135C08831603136F
:101D9A00BF00831203135B0883160313BE0083126A
:101DAA0003135A0883160313BD0083120313590839
:101DBA0083160313BC00413083120313C200203080
:101DCA00C1000030C0000030BF00831603133F0873
:101DDA0083120313C600831603133E0883120313E8
:101DEA00C500831603133D0883120313C400831628
:101DFA0003133C0883120313C3000A128A117020CA
:101E0A000A128A1583120313420883160313B300B6
:101E1A0083120313410883160313B20083120313B8
:101E2A00400883160313B100831203133F08831675
:101E3A000313B0000A128A152F250A128A1583166F
:101E4A0003133308C3003208C2003108C100300846
:101E5A00C000413083120313DC005B30DB00983092
:101E6A00DA00EA30D90083160313430883120313F6
:101E7A00E00083160313420883120313DF0083165C
:101E8A000313410883120313DE0083160313400869
:101E9A0083120313DD000A128A113F220A128A15DD
:101EAA00831203135C08C2005B08C1005A08C00011
:101EBA005908BF004530C6007F30C500A030C400B5
:101ECA000030C3000A128A1170200A128A1583127E
:101EDA000313420883160313C7008312031341082E
:101EEA0083160313C60083120313400883160313D1
:101EFA00C500831203133F0883160313C400C330BB
:101F0A0083120313DC008830DB008030DA000030F3
:101F1A00D90083160313470883120313E0008316BC
:101F2A000313460883120313DF00831603134508BD
:101F3A0083120313DE008316031344088312031368
:101F4A00DD000A128A113F220A128A15831203132C
:101F5A005C0883160313CB00831203135B088316F2
:101F6A000313CA00831203135A0883160313C90002
:101F7A0083120313590883160313C80043308312CC
:101F8A000313DC008830DB009330DA003330D900E9
:101F9A00831603134B0883120313E00083160313FB
:101FAA004A0883120313DF008316031349088312B6
:101FBA000313DE0083160313480883120313DD009C
:101FCA000A128A113F220A128A15831603134B0832
:101FDA00F3004A08F2004908F1004808F0000A161E
:101FEA008A11BF250A128A15710883160313B500D0
:061FFA007008B4000800AD
:1024CC00831603139F171F129F12831203131F08E7
:1024DC003F3940389F000800F030FF007F0883161A
:1024EC0003138605F030FF007F0886048113080073
:1024FC0001300A168A11B1230A168A110830F40029
:10250C00C930F300F30B882AF40B882A8D2A0800B3
:10251C003134323433344134343435343634423457
:10252C0037343834393443342A3430342334443453
:10253C007E088A007F0882000A168A119E220A16DB
:10254C008A118000840A04087D0603190034FF0AEE
:10255C000319FE0AA22AF001831203138718B72A63
:10256C00B82ABA2AF001F00A071CBD2ABE2AC02AD2
:10257C00F001F00A071DC32AC42AC62AF001F00A8A
:10258C007008080070080F39F200F20DF20D83127A
:10259C0003131F087206C33972069F001F141330F1
:1025AC00F200F20BD72ADA2A831203139F149F1816
:1025BC00E02AE12ADD2A1F101E08F10083160313FE
:1025CC001E08F0000800FE2A7408FF00730884003F
:1025DC000A128A1500200A168A110A168A11E72394
:1025EC000A168A110130F3070318F40A0030F407B5
:1025FC00740883120313FF00730884000A128A15EF
:10260C0000200A168A11003A031D0D2B0E2BEA2A04
:10261C000800F800023078020318152B162B212B1A
:10262C0075080F398038F90079080A168A11B12318
:10263C000A168A112B2B75080F39C038F900790846
:10264C000A168A11B1230A168A117608F300770844
:10265C00F4000A168A11E9220A168A110800F800F9
:10266C00F401F5017008F200F3017208F60073082A
:10267C00F700781C422B432B492B7608F4070318E0
:10268C00F50A7708F50701300310F60DF70DFF3E3C
:10269C00031D4A2B0310F80C7808031D562B572BDF
:1026AC003F2B7508F1007408F00008008316031323
:1026BC0088012730F400F530F300F30B632BF40B97
:1026CC00632B02300A168A11B1230A168A1128309C
:1026DC000A168A11B1230A168A1101300A168A11B8
:1026EC00B1230A168A110C300A168A11B1230A1664
:1026FC008A1106300A168A11B1230A168A110800AB
:10270C000A168A117E220A168A11F5019430F600F7
:10271C008030F70000300A168A110F230A168A112E
:10272C008312031309146630FC007630FB00C130B1
:10273C00FA00FA0B9F2BFB0B9F2BFC0B9F2B83128E
:10274C00031309100A168A117E220A168A118312A3
:10275C000313EF010800F200F0307205F000831251
:10276C00031308080F39700488000810881400003F
:10277C008312031388100330F1009730F000F00B34
:10278C00C52BF10BC52BCA2B7208F00004300310BB
:10279C00F00DFF3E031DCD2B8312031308080F39D8
:1027AC00700488008814000083120313881008300A
:1027BC00F100C930F000F00BE12BF10BE12BE62B13
:1027CC000800F200F0307205F000831203130808C1
:1027DC000F39700488000814881400008312031346
:1027EC0088100330F1009730F000F00BFB2BF10B4D
:1027FC00FB2B002C7208F00004300310F00DFF3E90
:10280C00031D032C8312031308080F39700488006E
:10281C00881400008312031388100830F100C930AB
:10282C00F000F00B172CF10B172C1C2C0800770860
:10283C0078040319222C232C522CFB01FB0A312C7B
:10284C0001300310F70DF80DFF3E031D272C01304E
:10285C00FF007F08FB07F81F342C352C262C78083A
:10286C007A02031D3B2C77087902031C3E2C3F2C6B
:10287C00452C7708F9027808031CFA03FA02013098
:10288C000310F80CF70CFF3E031D462C0130FB0225
:10289C00031D512C522C352C7A08F8007908F700BE
:1028AC000800FD010A168A117E220A168A11F5010A
:1028BC005830F6008030F70000300A168A110F23CA
:1028CC000A168A118D2C8312031309140630FC008E
:1028DC001330FB00AD30FA00FA0B722CFB0B722C90
:1028EC00FC0B722C792C8312031309100630FC009C
:1028FC001330FB00AD30FA00FA0B822CFB0B822C50
:10290C00FC0B822C892C0130FF007F08FD07053061
:10291C007D02031C922C932C692C83120313EF0160
:10292C00EF0A0800FD010A168A117E220A168A1186
:10293C00F5018730F6008030F70000300A168A1156
:10294C000F230A168A11CE2C831203130915063095
:10295C00FC001330FB00AD30FA00FA0BB32CFB0B70
:10296C00B32CFC0BB32CBA2C8312031309110630B5
:10297C00FC001330FB00AD30FA00FA0BC32CFB0B40
:10298C00C32CFC0BC32CCA2C0130FF007F08FD07A5
:10299C0005307D02031CD32CD42CAA2C83120313D8
:1029AC00EF01EF0A0800F401F50170087104031936
:1029BC00E02CE12C182DF601F60AEF2C0130031057
:1029CC00F00DF10DFF3E031DE52C0130FF007F08DB
:1029DC00F607F11FF22CF32CE42C01300310F40D4C
:1029EC00F50DFF3E031DF42C71087302031D002D21
:1029FC0070087202031C032D042D0B2D7008F202BB
:102A0C007108031CF303F302741401300310F10C6E
:102A1C00F00CFF3E031D0C2D0130F602031D172D8B
:102A2C00182DF32C7508F1007408F0000800F5005F
:102A3C00522D75088400831300080319262D272DA9
:102A4C00372D700884000A128A150A200A168A117A
:102A5C00F30075088400000873060319362D372D12
:102A6C004A2D700884000A128A150A200A168A1147
:102A7C00F300750884000008F40073087402F00079
:102A8C00F101031CF103622D0130FF007F08F507F3
:102A9C000130FF007F08F0070130F1020030031C09
:102AAC00F203F202710A031D5F2D720A031D5F2DE2
:102ABC00602D1F2DF001F101080083120313230870
:102ACC00F3002208F2002108F1002008F000003089
:102ADC00F7000030F6000030F5000030F4000A1268
:102AEC008A15CD200A168A11031C7D2D7E2D8F2D63
:102AFC00831203132408840083138001840A800149
:102B0C000030A3000030A2000030A1000030A00073
:102B1C00BE2D8312031323087F39FC00FD01031023
:102B2C00FC0DFD0D240884007C0883138000840AAE
:102B3C007D088000220D220D0139FC00FD012408C6
:102B4C0084007C088004840A7D08800424088400A6
:102B5C0082308007840F00080318000AFF00FF3042
:102B6C007F0780008403230880393F38A300A21319
:102B7C0008000310720D730DF9007908031DC72DA1
:102B8C00C82DD12D0030F3000030F2000030F100E0
:102B9C000030F000342E7008F4007108F500720853
:102BAC00F6007308F7001F300310F70CF60CF50C49
:102BBC00F40CFF3E031DDA2D7408F800F217FF30F9
:102BCC00F005FF30F105FF30F2050030F3059630CB
:102BDC00F902F91FF22DF32D0D2E7908803A973E4C
:102BEC000318F92DFA2DFB2DC82D01300310F30C11
:102BFC00F20CF10CF00CFF3E031DFC2D0130FF001C
:102C0C007F08F907031D0B2E0C2EFB2D242E2030D4
:102C1C007902031C122E132E1F2EC82D0130F40026
:102C2C000310F00DF10DF20DF30DF40B162E013017
:102C3C00F9027908031D232E242E142E780803196B
:102C4C00282E292E342EF009F109F209F309F00A85
:102C5C000319F10A0319F20A0319F30A08000030E8
:102C6C00831203138718013083160313DA00003024
:102C7C00831203130718013083160313D900003095
:102C8C00831203130719013083160313D8000A1695
:102C9C008A11B1220A168A11013A031D562E572E9B
:102CAC009E2E033083120313EF003430A0008316E2
:102CBC0003135A0883120313B300B4013308A100A1
:102CCC003408A20083160313590883120313B500AA
:102CDC00B6013508A3003608A40083160313580860
:102CEC0083120313B700B8013708A5003808A600F3
:102CFC0090300A128A153D240A168A11F50190307B
:102D0C00F6000130F70000300A168A110F230A165C
:102D1C008A110B3083120313B5002630B4005D30DA
:102D2C00B300B30B972EB40B972EB50B972EB12E79
:102D3C00153083120313B5004B30B400BD30B30013
:102D4C00B30BA62EB40BA62EB50BA62EAD2E0430AF
:102D5C0083120313EF00080000307005F8000030F8
:102D6C007105F90080307205FA007F307305FB00A5
:102D7C007B087A0479047804031DC52EC62ECE2E4A
:102D8C000030F3000030F2000030F1000030F000B1
:102D9C0000307405F80000307505F90080307605B8
:102DAC00FA007F307705FB007B087A0479047804FD
:102DBC00031DE12EE22EEA2E0030F7000030F60063
:102DCC000030F5000030F400F31FED2EEE2E122F24
:102DDC000030F8000030F9000030FA008030FB00C1
:102DEC007008F8027108031C710FFD2EFE2EF902FB
:102DFC007208031C720F032F042FFA027308031CB2
:102E0C00730F092F0A2FFB027B08F3007A08F200DC
:102E1C007908F1007808F000F71F152F162F3A2FBC
:102E2C000030F8000030F9000030FA008030FB0070
:102E3C007408F8027508031C750F252F262FF9024C
:102E4C007608031C760F2B2F2C2FFA027708031C05
:102E5C00770F312F322FFB027B08F7007A08F60030
:102E6C007908F5007808F4008030F3068030F70616
:102E7C0077087302031D4C2F76087202031D4C2F2A
:102E8C0075087102031D4C2F7408700203184F2F24
:102E9C00502F522F0310532F031408000A168A11B7
:102EAC007E220A168A11F501A130F6008030F70057
:102EBC0000300A168A110F230A168A11C0300A161E
:102ECC008A11B1230A168A110A128A155B230A1673
:102EDC008A11FD007D080319742F752F872F2A3056
:102EEC000A168A11E7230A168A1183160313560849
:102EFC00DB3E84007D08831380000130FF007F08D7
:102F0C00D6070530831603135602031C8E2F8F2F02
:102F1C006A2F2F30F0000430F1000030F200DB306B
:102F2C000A168A111D250A168A1170087104031DD0
:102F3C00A02FA12FC72F0A168A117E220A168A11DA
:102F4C00F5017830F6008030F70000300A168A114F
:102F5C000F230A168A118312031389141530FC00EF
:102F6C004B30FB00BE30FA00FA0BBA2FFB0BBA2F1A
:102F7C00FC0BBA2F0000831203138910EF01EF0A28
:102F8C00F12F0A168A117E220A168A11F501473092
:102F9C00F6008030F70000300A168A110F230A164B
:102FAC008A118312031309150B30FC002630FB0029
:102FBC005D30FA00FA0BE02FFB0BE02FFC0BE02F3F
:102FCC00E72F8312031309110130FF007F088316CA
:102FDC000313D707D6010430831603135702031CBF
:102FEC00F82FF92FFF2FD701D601023083120313CC
:042FFC00EF000800DA
:04400E00D520FF3F7B
:00000001FF
